{
  "_format": "hh-sol-artifact-1",
  "contractName": "FarmerRegistry",
  "sourceName": "contracts/FarmerRegistry.sol",
  "abi": [
    {
      "inputs": [
        {
          "internalType": "string",
          "name": "_id",
          "type": "string"
        },
        {
          "internalType": "string",
          "name": "_name",
          "type": "string"
        },
        {
          "internalType": "string",
          "name": "_product",
          "type": "string"
        }
      ],
      "name": "addFarmer",
      "outputs": [],
      "stateMutability": "nonpayable",
      "type": "function"
    },
    {
      "inputs": [
        {
          "internalType": "string",
          "name": "",
          "type": "string"
        }
      ],
      "name": "farmers",
      "outputs": [
        {
          "internalType": "string",
          "name": "farmerId",
          "type": "string"
        },
        {
          "internalType": "string",
          "name": "name",
          "type": "string"
        },
        {
          "internalType": "string",
          "name": "product",
          "type": "string"
        }
      ],
      "stateMutability": "view",
      "type": "function"
    },
    {
      "inputs": [
        {
          "internalType": "string",
          "name": "_id",
          "type": "string"
        }
      ],
      "name": "getFarmer",
      "outputs": [
        {
          "internalType": "string",
          "name": "",
          "type": "string"
        },
        {
          "internalType": "string",
          "name": "",
          "type": "string"
        }
      ],
      "stateMutability": "view",
      "type": "function"
    }
  ],
  "bytecode": "0x6080604052348015600f57600080fd5b50610bd68061001f6000396000f3fe608060405234801561001057600080fd5b50600436106100415760003560e01c80635cda31721461004657806376fe840c14610078578063b151494214610094575b600080fd5b610060600480360381019061005b9190610673565b6100c5565b60405161006f9392919061073b565b60405180910390f35b610092600480360381019061008d9190610787565b61029d565b005b6100ae60048036038101906100a99190610673565b610320565b6040516100bc92919061082e565b60405180910390f35b6000818051602081018201805184825260208301602085012081835280955050505050506000915090508060000180546100fe90610894565b80601f016020809104026020016040519081016040528092919081815260200182805461012a90610894565b80156101775780601f1061014c57610100808354040283529160200191610177565b820191906000526020600020905b81548152906001019060200180831161015a57829003601f168201915b50505050509080600101805461018c90610894565b80601f01602080910402602001604051908101604052809291908181526020018280546101b890610894565b80156102055780601f106101da57610100808354040283529160200191610205565b820191906000526020600020905b8154815290600101906020018083116101e857829003601f168201915b50505050509080600201805461021a90610894565b80601f016020809104026020016040519081016040528092919081815260200182805461024690610894565b80156102935780601f1061026857610100808354040283529160200191610293565b820191906000526020600020905b81548152906001019060200180831161027657829003601f168201915b5050505050905083565b6040518060600160405280848152602001838152602001828152506000846040516102c89190610901565b908152602001604051809103902060008201518160000190816102eb9190610ace565b5060208201518160010190816103019190610ace565b5060408201518160020190816103179190610ace565b50905050505050565b606080600080846040516103349190610901565b908152602001604051809103902060405180606001604052908160008201805461035d90610894565b80601f016020809104026020016040519081016040528092919081815260200182805461038990610894565b80156103d65780601f106103ab576101008083540402835291602001916103d6565b820191906000526020600020905b8154815290600101906020018083116103b957829003601f168201915b505050505081526020016001820180546103ef90610894565b80601f016020809104026020016040519081016040528092919081815260200182805461041b90610894565b80156104685780601f1061043d57610100808354040283529160200191610468565b820191906000526020600020905b81548152906001019060200180831161044b57829003601f168201915b5050505050815260200160028201805461048190610894565b80601f01602080910402602001604051908101604052809291908181526020018280546104ad90610894565b80156104fa5780601f106104cf576101008083540402835291602001916104fa565b820191906000526020600020905b8154815290600101906020018083116104dd57829003601f168201915b5050505050815250509050806020015181604001519250925050915091565b6000604051905090565b600080fd5b600080fd5b600080fd5b600080fd5b6000601f19601f8301169050919050565b7f4e487b7100000000000000000000000000000000000000000000000000000000600052604160045260246000fd5b61058082610537565b810181811067ffffffffffffffff8211171561059f5761059e610548565b5b80604052505050565b60006105b2610519565b90506105be8282610577565b919050565b600067ffffffffffffffff8211156105de576105dd610548565b5b6105e782610537565b9050602081019050919050565b82818337600083830152505050565b6000610616610611846105c3565b6105a8565b90508281526020810184848401111561063257610631610532565b5b61063d8482856105f4565b509392505050565b600082601f83011261065a5761065961052d565b5b813561066a848260208601610603565b91505092915050565b60006020828403121561068957610688610523565b5b600082013567ffffffffffffffff8111156106a7576106a6610528565b5b6106b384828501610645565b91505092915050565b600081519050919050565b600082825260208201905092915050565b60005b838110156106f65780820151818401526020810190506106db565b60008484015250505050565b600061070d826106bc565b61071781856106c7565b93506107278185602086016106d8565b61073081610537565b840191505092915050565b600060608201905081810360008301526107558186610702565b905081810360208301526107698185610702565b9050818103604083015261077d8184610702565b9050949350505050565b6000806000606084860312156107a05761079f610523565b5b600084013567ffffffffffffffff8111156107be576107bd610528565b5b6107ca86828701610645565b935050602084013567ffffffffffffffff8111156107eb576107ea610528565b5b6107f786828701610645565b925050604084013567ffffffffffffffff81111561081857610817610528565b5b61082486828701610645565b9150509250925092565b600060408201905081810360008301526108488185610702565b9050818103602083015261085c8184610702565b90509392505050565b7f4e487b7100000000000000000000000000000000000000000000000000000000600052602260045260246000fd5b600060028204905060018216806108ac57607f821691505b6020821081036108bf576108be610865565b5b50919050565b600081905092915050565b60006108db826106bc565b6108e581856108c5565b93506108f58185602086016106d8565b80840191505092915050565b600061090d82846108d0565b915081905092915050565b60008190508160005260206000209050919050565b60006020601f8301049050919050565b600082821b905092915050565b60006008830261097a7fffffffffffffffffffffffffffffffffffffffffffffffffffffffffffffffff8261093d565b610984868361093d565b95508019841693508086168417925050509392505050565b6000819050919050565b6000819050919050565b60006109cb6109c66109c18461099c565b6109a6565b61099c565b9050919050565b6000819050919050565b6109e5836109b0565b6109f96109f1826109d2565b84845461094a565b825550505050565b600090565b610a0e610a01565b610a198184846109dc565b505050565b5b81811015610a3d57610a32600082610a06565b600181019050610a1f565b5050565b601f821115610a8257610a5381610918565b610a5c8461092d565b81016020851015610a6b578190505b610a7f610a778561092d565b830182610a1e565b50505b505050565b600082821c905092915050565b6000610aa560001984600802610a87565b1980831691505092915050565b6000610abe8383610a94565b9150826002028217905092915050565b610ad7826106bc565b67ffffffffffffffff811115610af057610aef610548565b5b610afa8254610894565b610b05828285610a41565b600060209050601f831160018114610b385760008415610b26578287015190505b610b308582610ab2565b865550610b98565b601f198416610b4686610918565b60005b82811015610b6e57848901518255600182019150602085019450602081019050610b49565b86831015610b8b5784890151610b87601f891682610a94565b8355505b6001600288020188555050505b50505050505056fea2646970667358221220a738eea372838a5dbe29ee9caa1036317eee8dd671e2d65cb29505c9c138da9864736f6c634300081c0033",
  "linkReferences": {},
  "deployedLinkReferences": {}
}